:020000040800F2
:1000000000000220491700089D1300089F130008F4
:10001000A1130008A3130008A513000800000000A6
:10002000000000000000000000000000513900083E
:10003000A713000800000000F1390008553A000835
:1000400099170008991700089917000899170008D0
:1000500099170008991700089917000899170008C0
:1000600099170008991700089917000899170008B0
:1000700099170008991700089917000899170008A0
:100080009917000899170008991700089917000890
:10009000A913000899170008991700089917000874
:1000A0009917000899170008991700089917000870
:1000B0009917000899170008991700089917000860
:1000C0009917000899170008991700089917000850
:1000D00099170008B9130008991700089917000824
:1000E0009917000899170008991700089917000830
:1000F0009917000899170008991700089917000820
:10010000991700089917000899170008991700080F
:10011000991700089917000899170008C9130008D3
:1001200099170008D91300089917000899170008B3
:1001300099170008991700089917000899170008DF
:10014000E913000899170008991700089917000883
:1001500099170008F9130008091400081914000879
:1001600099170008991700089917000899170008AF
:100170009917000899170008991700080000000057
:08018000991700089917000807
:1001C00081F0004102E000BF83F0004330B54FEA08
:1001D00041044FEA430594EA050F08BF90EA020F75
:1001E0001FBF54EA000C55EA020C7FEA645C7FEA08
:1001F000655C00F0E2804FEA5454D4EB5555B8BF2B
:100200006D420CDD2C4480EA020281EA030382EA9B
:10021000000083EA010180EA020281EA0303362D2D
:1002200088BF30BD11F0004F4FEA01314FF4801C00
:100230004CEA113102D0404261EB410113F0004F12
:100240004FEA03334CEA133302D0524263EB4303C9
:1002500094EA050F00F0A780A4F10104D5F1200E67
:100260000DDB02FA0EFC22FA05F2801841F10001C2
:1002700003FA0EF2801843FA05F359410EE0A5F196
:1002800020050EF1200E012A03FA0EFC28BF4CF0C7
:10029000020C43FA05F3C01851EBE37101F000457D
:1002A00007D54FF0000EDCF1000C7EEB00006EEB8A
:1002B0000101B1F5801F1BD3B1F5001F0CD3490814
:1002C0005FEA30004FEA3C0C04F101044FEA44526B
:1002D00012F5800F80F09A80BCF1004F08BF5FEAF2
:1002E000500C50F1000041EB045141EA050130BDD2
:1002F0005FEA4C0C404141EB0101013C28BFB1F5E4
:10030000801FE9D291F0000F04BF01460020B1FA2E
:1003100081F308BF2033A3F10B03B3F120020CDA01
:100320000C3208DD02F1140CC2F10C0201FA0CF0DF
:1003300021FA02F10CE002F11402D8BFC2F1200C44
:1003400001FA02F120FA0CFCDCBF41EA0C019040FA
:10035000E41AA2BF01EB0451294330BD6FEA040443
:100360001F3C1CDA0C340EDC04F11404C4F120022E
:1003700020FA04F001FA02F340EA030021FA04F340
:1003800045EA030130BDC4F10C04C4F1200220FA97
:1003900002F001FA04F340EA0300294630BD21FAD5
:1003A00004F0294630BD94F0000F83F4801306BF9B
:1003B00081F480110134013D4EE77FEA645C18BF8F
:1003C0007FEA655C29D094EA050F08BF90EA020F26
:1003D00005D054EA000C04BF1946104630BD91EA1E
:1003E000030F1EBF0021002030BD5FEA545C05D121
:1003F0004000494128BF41F0004130BD14F5800460
:100400003CBF01F5801130BD01F0004545F0FE41D3
:1004100041F470014FF0000030BD7FEA645C1ABF08
:10042000194610467FEA655C1CBF0B46024650EA3F
:10043000013406BF52EA033591EA030F41F400216B
:1004400030BD00BF90F0000F04BF0021704730B5F1
:100450004FF4806404F132044FF000054FF00001C6
:1004600050E700BF90F0000F04BF0021704730B587
:100470004FF4806404F1320410F0004548BF40425C
:100480004FF000013EE700BF42004FEAE2014FEAB1
:1004900031014FEA02701FBF12F07F4393F07F4F8C
:1004A00081F06051704732F07F4208BF704793F08F
:1004B0007F4F04BF41F40021704730B54FF46074A2
:1004C00001F0004521F000411CE700BF50EA0102A5
:1004D00008BF704730B54FF000050AE050EA01024E
:1004E00008BF704730B511F0004502D5404261EBBE
:1004F00041014FF4806404F132045FEA915C3FF4FF
:10050000D8AE4FF003025FEADC0C18BF03325FEA9B
:10051000DC0C18BF033202EBDC02C2F1200300FA4C
:1005200003FC20FA02F001FA03FE40EA0E0021FA71
:1005300002F11444BDE600BF53B94AB9002908BF0F
:1005400000281CBF4FF0FF314FF0FF3000F00CB817
:10055000ADF1080C6DE904CE04F00CFBDDF804E00D
:10056000DDE9022304B07047704700BF844641EACA
:10057000000313F003036DD1403A41D351F8043B1B
:1005800040F8043B51F8043B40F8043B51F8043B6D
:1005900040F8043B51F8043B40F8043B51F8043B5D
:1005A00040F8043B51F8043B40F8043B51F8043B4D
:1005B00040F8043B51F8043B40F8043B51F8043B3D
:1005C00040F8043B51F8043B40F8043B51F8043B2D
:1005D00040F8043B51F8043B40F8043B51F8043B1D
:1005E00040F8043B51F8043B40F8043B51F8043B0D
:1005F00040F8043B51F8043B40F8043B403ABDD27C
:10060000303211D351F8043B40F8043B51F8043B1D
:1006100040F8043B51F8043B40F8043B51F8043BDC
:1006200040F8043B103AEDD20C3205D351F8043BAC
:1006300040F8043B043AF9D2043208D0D2071CBF78
:1006400011F8013B00F8013B01D30B8803806046A1
:10065000704700BF082A13D38B078DD010F0030317
:100660008AD0C3F10403D21ADB071CBF11F8013B87
:1006700000F8013B80D331F8023B20F8023B7BE7D6
:10068000043AD9D3013A11F8013B00F8013BF9D201
:100690000B7803704B7843708B788370604670479B
:1006A00001F0FF01102A2BDB10F0070F08D010F823
:1006B000013B013A8B422DD010F0070F42B3F6D127
:1006C000F0B441EA012141EA014122F007047FF040
:1006D00000070023F0E80256083C85EA010586EA97
:1006E000010685FA47F5A3FA87F586FA47F6A5FAD3
:1006F00087F68EB9EED1F0BC01F0FF0102F00702DF
:1007000032B110F8013B013A83EA010313B1F8D189
:100710000020704701387047002D06BF354603386A
:10072000073815F0010F07D1013015F4807F02BFA3
:10073000013015F4C03F0130F0BC0138704700BFF4
:1007400030B490F800F020F007016FF0000C10F0CA
:10075000070491F820F040F048804FF000046FF05B
:100760000700D1E9002391F840F000F1080082FA77
:100770004CF2A4FA8CF283FA4CF3A2FA8CF34BBB42
:10078000D1E9022382FA4CF200F10800A4FA8CF2BB
:1007900083FA4CF3A2FA8CF3E3B9D1E9042382FA89
:1007A0004CF200F10800A4FA8CF283FA4CF3A2FA9E
:1007B0008CF37BB9D1E9062301F1200182FA4CF2D6
:1007C00000F10800A4FA8CF283FA4CF3A2FA8CF33D
:1007D000002BC6D0002A04BF04301A4612BAB2FA5F
:1007E00082F200EBD20030BC7047D1E9002304F064
:1007F0000305C4F100004FEAC50514F0040F91F899
:1008000040F00CFA05F562EA05021CBF63EA050335
:1008100062464FF00004AAE770B54FF0FF0C4CF4AD
:10082000E06C1CEA11541DBF1CEA135594EA0C0F2E
:1008300095EA0C0F00F0DEF82C4481EA030621EA69
:100840004C5123EA4C5350EA013518BF52EA0335A4
:1008500041F4801143F4801338D0A0FB02CE4FF056
:100860000005E1FB02E506F00042E0FB03E54FF086
:100870000006E1FB03569CF0000F18BF4EF0010E7E
:10088000A4F1FF04B6F5007F64F5407404D25FEA7A
:100890004E0E6D4146EB060642EAC62141EA55512D
:1008A0004FEAC52040EA5E504FEACE2EB4F1FD0C6F
:1008B00088BFBCF5E06F1ED8BEF1004F08BF5FEAED
:1008C000500E50F1000041EB045170BD06F000469F
:1008D00046EA010140EA020081EA0301B4EB5C044C
:1008E000C2BFD4EB0C0541EA045170BD41F4801144
:1008F0004FF0000E013C00F3AB8014F1360FDEBF69
:10090000002001F0004170BDC4F10004203C35DA44
:100910000C341BDC04F11404C4F1200500FA05F3C7
:1009200020FA04F001FA05F240EA020001F0004268
:1009300021F0004110EBD37021FA04F642EB0601DE
:100940005EEA430E08BF20EAD37070BDC4F10C0408
:10095000C4F1200500FA04F320FA05F001FA04F2CC
:1009600040EA020001F0004110EBD37041F10001B8
:100970005EEA430E08BF20EAD37070BDC4F12005C3
:1009800000FA05F24EEA020E20FA04F301FA05F22B
:1009900043EA020321FA04F001F0004121FA04F2D3
:1009A00020EA020000EBD3705EEA430E08BF20EAA3
:1009B000D37070BD94F0000F0FD101F000464000DD
:1009C00041EB010111F4801F08BF013CF7D041EA5F
:1009D000060195F0000F18BF704703F00046520063
:1009E00043EB030313F4801F08BF013DF7D043EA34
:1009F0000603704794EA0C0F0CEA135518BF95EAEA
:100A00000C0F0CD050EA410618BF52EA4306D1D170
:100A100081EA030101F000414FF0000070BD50EA8F
:100A2000410606BF1046194652EA430619D094EA19
:100A30000C0F02D150EA013613D195EA0C0F05D103
:100A400052EA03361CBF104619460AD181EA030157
:100A500001F0004141F0FE4141F470014FF000000F
:100A600070BD41F0FE4141F4780170BD70B54FF0AA
:100A7000FF0C4CF4E06C1CEA11541DBF1CEA13552A
:100A800094EA0C0F95EA0C0F00F0A7F8A4EB05040C
:100A900081EA030E52EA03354FEA013100F0888003
:100AA0004FEA03334FF0805545EA131343EA1263CC
:100AB0004FEA022245EA111545EA10654FEA002681
:100AC0000EF000419D4208BF964244F1FD0404F53A
:100AD000407402D25B084FEA3202B61A65EB030596
:100AE0005B084FEA32024FF480104FF4002CB6EB53
:100AF000020E75EB030E22BFB61A754640EA0C00D3
:100B00005B084FEA3202B6EB020E75EB030E22BF12
:100B1000B61A754640EA5C005B084FEA3202B6EB53
:100B2000020E75EB030E22BFB61A754640EA9C0012
:100B30005B084FEA3202B6EB020E75EB030E22BFE2
:100B4000B61A754640EADC0055EA060E18D04FEAA0
:100B5000051545EA16754FEA06164FEAC30343EA40
:100B600052734FEAC2025FEA1C1CC0D111F4801F0D
:100B70000BD141EA00014FF000004FF0004CB6E706
:100B800011F4801F04BF01430020B4F1FD0C88BFA5
:100B9000BCF5E06F3FF6AFAEB5EB030C04BFB6EBB0
:100BA000020C5FEA500C50F1000041EB045170BDA3
:100BB0000EF0004E4EEA113114EB5C04C2BFD4EBD0
:100BC0000C0541EA045170BD41F480114FF0000E54
:100BD000013C90E645EA060E8DE60CEA135594EAD0
:100BE0000C0F08BF95EA0C0F3FF43BAF94EA0C0FD3
:100BF0000AD150EA01347FF434AF95EA0C0F7FF448
:100C000025AF104619462CE795EA0C0F06D152EA9B
:100C100003353FF4FDAE1046194622E750EA41067F
:100C200018BF52EA43067FF4C5AE50EA41047FF490
:100C30000DAF52EA43057FF4EBAE12E74FF0FF3CF5
:100C400006E000BF4FF0010C02E000BF4FF0010CC6
:100C50004DF804CD4FEA410C7FEA6C5C4FEA430C3F
:100C600018BF7FEA6C5C1BD001B050EA410C0CBF8E
:100C700052EA430C91EA030F02BF90EA020F0020F0
:100C8000704710F1000F91EA030F58BF994208BF57
:100C900090422CBFD8176FEAE37040F00100704714
:100CA0004FEA410C7FEA6C5C02D150EA013C07D16B
:100CB0004FEA430C7FEA6C5CD6D152EA033CD3D0B6
:100CC0005DF8040B704700BF8446104662468C46B0
:100CD0001946634600E000BF01B5FFF7B7FF0028E3
:100CE00048BF10F1000F01BD4DF808EDFFF7F4FF0C
:100CF0000CBF012000205DF808FB00BF4DF808ED97
:100D0000FFF7EAFF34BF012000205DF808FB00BFB9
:100D10004DF808EDFFF7E0FF94BF012000205DF8DB
:100D200008FB00BF4DF808EDFFF7CEFF94BF012090
:100D300000205DF808FB00BF4DF808EDFFF7C4FF89
:100D400034BF012000205DF808FB00BF4FEA410CD2
:100D50007FEA6C5C02D150EA013C0AD14FEA430CB5
:100D60007FEA6C5C02D152EA033C02D14FF00000F2
:100D700070474FF0010070474FEA410212F5001230
:100D800015D211D56FF47873B3EB625212D94FEAD2
:100D9000C12343F0004343EA505311F0004F23FABC
:100DA00002F018BF404270474FF00000704750EA11
:100DB000013005D111F0004008BF6FF000407047CE
:100DC0004FF00000704700BF0348044B834202D03D
:100DD000034B03B1184770470408002004080020A3
:100DE000000000000548064B1B1AD90F01EBA301B8
:100DF000491002D0034B03B1184770470408002084
:100E0000040800200000000010B5064C237843B908
:100E1000FFF7DAFF044B13B10448AFF3008001235E
:100E2000237010BD080800200000000060AE00081C
:100E300008B5054B1BB105490548AFF30080BDE877
:100E40000840FFF7CFBF00BF000000000C080020E3
:100E500060AE000808B50D480D4B036003234360E6
:100E600000238360C3604FF4102202614FF400122C
:100E70004261037643768376C3760377437700F047
:100E8000B9FC00B908BD00F0A7F9FBE75008002045
:100E90000064004008B50D480D4B03600323436018
:100EA00000238360C3604FF4102202614FF40012EC
:100EB0004261037643768376C3760377437700F007
:100EC00099FC00B908BD00F087F9FBE7280800206D
:100ED0000068004010B58AB000230593069307937D
:100EE0000893099303683D4A934204D03C4A9342D5
:100EF00034D00AB010BD3B4A136801331360012B94
:100F00001FD000240194384B1A6B42F008021A6378
:100F10001B6B03F008030193019B0323059302223B
:100F2000069208930923099305A9304801F0C2FAF3
:100F300022460521142001F091F8142001F09EF8BA
:100F4000D7E700230093284B1A6C42F000721A6412
:100F50001B6C03F000730093009BD2E70023029305
:100F6000214B1A6C42F080621A641B6C03F08063A0
:100F70000293029B1B4A136801331360012B20D09C
:100F800000240494184B1A6B42F002021A631B6B84
:100F900003F002030493049B60230593022306934A
:100FA000032308930923099305A9114801F082FA44
:100FB00022460521402001F051F8402001F05EF862
:100FC00097E700230393084B1A6C42F000721A64EF
:100FD0001B6C03F000730393039BD1E70064004094
:100FE000006800402408002000380240000C024045
:100FF0000004024010B582B000240194114B1A6B1A
:1010000042F480021A631B6B03F480030193019B7B
:1010100022460521392001F021F8392001F02EF86F
:1010200022460521452001F019F8452001F026F857
:1010300022460521462001F011F8462001F01EF855
:1010400002B010BD0038024008B5012002F0DCFB00
:10105000FBE70000034B0360034B0B60802313602E
:10106000704700BF780A00207808002010B59CB0B7
:10107000244C0DF1540CA646BEE80F00ACE80F005E
:101080009EE807008CE80700002115A802F089FB04
:101090001D4B18600DF1380C04F11C0EBEE80F005A
:1010A000ACE80F009EE807008CE8070000210EA8BE
:1010B00002F077FB154B18600DF11C0C04F1380E93
:1010C000BEE80F00ACE80F009EE807008CE80700C0
:1010D000002107A802F065FB0D4B1860EE4604F1F5
:1010E000540CBCE80F00AEE80F009CE807008EE847
:1010F00007000021684602F054FB064B18601CB044
:1011000010BD00BF78AE00081C0C0020180C002099
:10111000140C0020100C002030B58BB00024059476
:1011200006940794089409940094234B1A6B42F098
:1011300002021A631A6B02F002020092009A0194F2
:101140001A6B42F040021A631A6B02F040020192DD
:10115000019A02941A6B42F001021A631A6B02F0B0
:1011600001020292029A03941A6B42F008021A6377
:101170001A6B02F008020392039A04941A6B42F06D
:1011800080021A631B6B03F080030493049B0B4DD6
:1011900022464FF4E051284601F082FA4FF4E05322
:1011A0000593012306930794089405A9284601F0A6
:1011B00081F90BB030BD00BF00380240001C024076
:1011C00008B50268034B9A4200D008BD00F000FB4E
:1011D000FBE700BF0014004072B6FEE700B595B013
:1011E0003022002108A803F077FF00230393049323
:1011F0000593069307930193204A116C41F08051A7
:101200001164126C02F080520192019A02931C4BFD
:101210001A6842F480421A601B6803F48043029308
:10122000029B012308934FF48033099302230E930A
:101230004FF480020F9206221092A822119212936C
:101240000423139308A801F03BFA98B90F230393E2
:1012500002230493002305934FF4A05306934FF405
:1012600080530793052103A801F07AFC20B915B03B
:101270005DF804FBFFF7B0FFFFF7AEFF0038024058
:101280000070004008B500F089FAFFF7A7FFFFF7EC
:1012900043FFFFF7AFFE00F02FF9FFF7DBFDFFF78D
:1012A000F9FD00F043F903F0BFFAFFF7DFFE02F0AB
:1012B00073FAFEE700B583B0002200920D4B596C23
:1012C00041F480415964596C01F4804100910099C6
:1012D0000192196C41F0805119641B6C03F080532A
:1012E0000193019B0F216FF0010000F0B7FE03B0E6
:1012F0005DF804FB0038024030B589B00446002395
:101300000193214B1A6C42F020021A641B6C03F00B
:1013100020030193019B02A903A801F0F7FC069B9F
:10132000CBB901F0D3FC0346184AA2FB03239B0C64
:10133000013B1748174A026040F2E732C26043603F
:10134000002303618360836101F064FE054630B1D0
:10135000284609B030BD01F0B9FC4300E4E70C4871
:1013600001F0F4FC05460028F2D1372000F086FE9B
:101370000F2C01D90125EBE700222146372000F090
:101380006DFE054B1C60E3E70038024083DE1B4323
:10139000200C00200014004008000020FEE7FEE7BB
:1013A000FEE7FEE7FEE7704708B5024800F0DAFC0A
:1013B00008BD00BF5008002008B5024802F0A4F89C
:1013C00008BD00BFD40D002008B5024801F006FD9D
:1013D00008BD00BF200C002008B5024800F07CFFCB
:1013E00008BD00BFCC0C002008B5024800F0BAFCD4
:1013F00008BD00BF2808002008B5024800F06CFFB7
:1014000008BD00BF6C0C002008B5024800F064FF66
:1014100008BD00BF2C0D002008B5024802F074F88A
:1014200008BD00BF8C0D00200120704708B503F0F7
:101430002FFF162303604FF0FF3008BD08B54FF0B3
:10144000FF31FFF7F3FFFEE770B50C4616460025A7
:1014500006E0AFF30080214601F8010B01350C4690
:10146000B542F6DB304670BD70B50C461646002519
:1014700004E014F8010BAFF300800135B542F8DB4E
:10148000304670BD4FF0FF3070474FF400534B6053
:1014900000207047012070470020704710B50346B8
:1014A0000C4A0D490D48006840B10C4800680344DF
:1014B000521A934206D8094A136010BD0748084CD7
:1014C0000460F2E703F0E4FE0C2303604FF0FF300A
:1014D000F3E700BF0000022000040000680C0020B9
:1014E000904F0020034AD2F8883043F47003C2F8CA
:1014F0008830704700ED00E008B50A480A4B0360E9
:101500004FF4E133436000238360C36003610C2226
:1015100042618361C36101F0D4FE00B908BDFFF7E9
:101520005BFEFBE7D40D00200010014008B50A481F
:101530000A4B03604FF4E133436000238360C360D0
:1015400003610C2242618361C36101F0BAFE00B9FC
:1015500008BDFFF741FEFBE78C0D002000140140A1
:101560002DE9F0418AB004460023059306930793C2
:10157000089309930368684A934205D0674A9342E7
:1015800061D00AB0BDE8F08100250095644B5A6C2B
:1015900042F010025A645A6C02F010020092009A53
:1015A00001951A6B42F002021A631A6B02F00202F2
:1015B0000192019A02951A6B42F001021A631B6BA9
:1015C00003F001030293029B802305934FF002086E
:1015D000CDF81880032708970726099605A95148D2
:1015E00000F068FF4FF400730593CDF8188007955D
:1015F0000897099605A94C4800F05CFF4B484C4BF6
:1016000003604FF00063436040238360C5604FF484
:101610008063036145618561C5614FF48033036276
:10162000456200F095FD58B9404BA3639C630022CE
:101630000521252000F012FD252000F01FFDA0E768
:10164000FFF7CAFDF0E700250395354B5A6C42F0D1
:1016500020025A645A6C02F020020392039A049505
:101660001A6B42F040021A631B6B03F040030493B1
:10167000049B4FF4844305930223069303230893AA
:101680000823099305A92B4800F014FF2A482B4B87
:1016900003604FF0206343608560C5604FF4806352
:1016A0000361456185614FF48073C3614FF48033FA
:1016B0000362456200F04CFD38BB1F4BE3639C6343
:1016C0001F48204B03604FF020634360402383603A
:1016D0000023C3604FF480620261436183614FF471
:1016E0008072C2614FF480320262436200F030FDCA
:1016F00070B9134BA3639C6300220521472000F0BF
:10170000ADFC472000F0BAFC3BE7FFF765FDD4E7EE
:10171000FFF762FDEDE700BF00100140001401403B
:101720000038024000040240000002402C0D00205E
:10173000B864024000180240CC0C0020286402402B
:101740006C0C0020A0640240DFF834D0FFF7CAFE22
:101750000C480D490D4A002302E0D458C45004330C
:10176000C4188C42F9D30A4A0A4C002301E01360E2
:101770000432A242FBD303F091FDFFF783FD7047D3
:1017800000000220000000200408002048B30008E8
:1017900008080020904F0020FEE7000008B50B4B22
:1017A0001A6842F400721A601A6842F480621A6081
:1017B0001A6842F480721A60032000F03DFC0F208A
:1017C000FFF79AFDFFF776FD002008BD003C0240C0
:1017D000034A1168034B1B780B441360704700BF2A
:1017E0001C0E002004000020014B1868704700BF49
:1017F0001C0E0020002800F0A18038B5044690F8A7
:101800002030D3B12268136843F001031360FFF75F
:10181000EBFF054623685A6812F0010F10D1FFF75D
:10182000E3FF401B0A28F5D9636A43F4003363627F
:10183000052384F82030012038BDFFF74BFBE1E79A
:101840001A6822F002021A60FFF7CEFF05462368ED
:101850005A6812F0020F0DD0FFF7C6FF401B0A288E
:10186000F5D9636A43F400336362052384F82030BA
:101870000120E1E7227E012A3DD01A6822F0800291
:101880001A60637E012B3BD02268136823F040036B
:101890001360A37E012B39D02268136823F0200344
:1018A0001360E37E012B37D02268136843F01003E6
:1018B0001360237F012B35D02268136823F00803BF
:1018C0001360637F012B33D02268136823F0040375
:1018D0001360A368E26813432269134362691343E8
:1018E0006268013A21681343CB61002060620123E2
:1018F00084F82030A0E71A6842F080021A60C0E73E
:101900002268136843F040031360C2E7226813683B
:1019100043F020031360C4E72268136823F0100328
:101920001360C6E72268136843F008031360C8E732
:101930002268136843F004031360CAE7012070476C
:1019400090F82030013BDBB2012B05D9436A43F408
:10195000802343620120704730B5464BD3F8002204
:1019600042F00102C3F80022D3F8002222F47C5294
:10197000C3F80022D3F80022486A42EA0022C3F8E2
:1019800000224A6902F01F02012000FA02F2D3F895
:101990001C026FEA020C20EA0200C3F81C02CB69A9
:1019A000C3B9344BD3F80C020CEA0000C3F80C02A4
:1019B0008C884869CD6844EA0544483043F8304093
:1019C0008C68088840EA04404C6904F1480E03EB37
:1019D000CE035860CB69012B1ED08B69002B33D10D
:1019E0002448D0F804320CEA0303C0F804320B692F
:1019F0008BBB2048D0F814320CEA0303C0F8143231
:101A00000B6A012B2ED01B4AD2F8003223F00103BF
:101A1000C2F80032002030BD164BD3F80C02104340
:101A2000C3F80C028C8848690D6844EA05444830C4
:101A300043F8304088894C698D6840EA0540483455
:101A400003EBC4035860C8E70A48D0F804321343D4
:101A5000C0F80432CBE70748D0F814321343C0F87B
:101A60001432CDE70349D1F81C321343C1F81C32BC
:101A7000C9E700BF0064004070B5044690F82050EC
:101A8000EDB2012D06D0436A43F4002343620125E1
:101A9000284670BD022380F820300268136823F0C6
:101AA00001031360FFF7A0FE064623685B6813F08E
:101AB000010F0CD0FFF798FE831B0A2BF5D9636A40
:101AC00043F400336362052384F82030E0E7002507
:101AD0006562DDE730B590F820C00468A4680CF1B9
:101AE000FF3C5FFA8CFCBCF1010F62D814F0E05FA0
:101AF00059D0C4F3016C012404FA0CF41C608B6807
:101B0000002B3DD10D68CB68046843EA45550CF1C4
:101B100018031B01E55003680C690CF1180E03EB68
:101B20000E135C600B7D012B35D0D17993791B04AA
:101B300043EA0163517943EA01231479016823439D
:101B400001EB0C11C1F88C31D17893781B0443EA76
:101B50000163517843EA0123117802680B4302EBD9
:101B60000C12C2F8883102680CF1180C4FEA0C1CF8
:101B700052F80C3043F0010342F80C3000201DE015
:101B80004C6843EAC403CC6823430CF118042401D5
:101B900005682B51BFE7036803EB0E13596841F446
:101BA00080715960C1E7436A43F400134362012026
:101BB00004E0436A43F480234362012030BD90F87F
:101BC00020C00CF1FF3C5FFA8CFCBCF1010F00F26D
:101BD000A58030B451B90468E46814F0030F10D143
:101BE000436A43F40013436201207EE004682469E1
:101BF00014F0030F05D1436A43F40013436201203C
:101C000073E0056801F11B0424012C5904F004045D
:101C10009460002C6BD1056801F11B0424012C5940
:101C2000640D1460046801F11B0C4FEA0C1C54F89D
:101C30000C4004F00204D4600468A444DCF80450AE
:101C400015F0080F5BD008241461046801F11B0C27
:101C500004EB0C146468C4F307249461046804EB77
:101C60000C146468240C5461026802EB0112D2F86F
:101C7000B8211A70026802EB0112D2F8B821C2F33F
:101C800007225A70026802EB0112D2F8B821C2F39F
:101C900007429A70026802EB0112D2F8B821120EC4
:101CA000DA70026802EB0112D2F8BC211A710268E4
:101CB00002EB0112D2F8BC21C2F307225A7102686A
:101CC00002EB0112D2F8BC21C2F307429A710268FA
:101CD00002EB0112D2F8BC21120EDA71C1B902680E
:101CE000D36843F02003D360002030BC7047056800
:101CF00001F11B0424012C59E408546092E701F11E
:101D00001B0504EB0514646804F00F0414619CE7E0
:101D10000268136943F020031361E5E7436A43F463
:101D2000802343620120704790F82030013BDBB2F2
:101D3000012B05D9436A43F4802343620120704795
:101D4000026853690B435361002070477047704726
:101D500070477047704770477047704770477047CB
:101D6000704770472DE9F84F054603685C69D3F862
:101D700004809F68D3F80CA0D3F81090D3F818B063
:101D800014F001063BD017F0010616D001229A602C
:101D900017F0020F08D117F0040F0CD117F0080646
:101DA00006D04FF4805608E0FFF7D0FF002604E08D
:101DB000FFF7CFFF01E04FF4006617F4807F0DD0EE
:101DC0002B684FF480729A6017F4007F40F0968081
:101DD00017F4806F00F0968046F4005617F4803FA9
:101DE0000DD02B684FF480329A6017F4003F40F01A
:101DF000938017F4802F00F0938046F4004614F08F
:101E0000080F07D01AF0100F04D046F400762B68A4
:101E10001022DA6014F0040F03D01AF0080F40F01B
:101E2000898014F0020F05D02B68DB6813F0030FD4
:101E300040F0878014F0400F07D019F0100F04D045
:101E400046F480662B6810221A6114F0200F02D02D
:101E500019F0080F79D114F0100F04D02B681B690A
:101E600013F0030F78D114F4003F02D018F0100FD4
:101E700076D114F4803F02D018F0080F77D114F413
:101E8000004F37D018F0040F31D014F4807F04D005
:101E90001BF0010F01D046F0010614F4007F04D0BE
:101EA0001BF0020F01D046F0020614F4806F04D03C
:101EB0001BF0040F01D046F0040614F4006F16D096
:101EC0001BF0700B13D0BBF1400F66D056D8BBF19E
:101ED000200F5CD0BBF1300F5CD0BBF1100F01D1F3
:101EE00046F008062A68936923F0700393612B6813
:101EF00004225A60002E56D1BDE8F88F2846FFF71D
:101F000026FF6BE717F4006F02D046F4804665E7C2
:101F10002846FFF71FFF61E72846FFF719FF6EE726
:101F200017F4002F02D046F4803668E72846FFF702
:101F300012FF64E72B680822DA602846FFF70CFFDF
:101F40006FE7284602F050FD74E72B6808221A61FB
:101F50002846FFF703FF7EE72846FFF7FEFE82E7ED
:101F60002B6810225A602846FFF7F9FE81E72B689C
:101F700008225A602846FFF7F3FE80E7BBF1500FB6
:101F80000ED0BBF1600FADD146F48076AAE746F0E3
:101F90001006A7E746F02006A4E746F04006A1E7B2
:101FA00046F080069EE76B6A33436B622846FFF774
:101FB000D8FEA1E7002807DB00F01F02400901233B
:101FC0009340024A42F82030704700BF00E100E031
:101FD000002808DB0901C9B200F1604000F561404A
:101FE00080F80013704700F00F000901C9B2014BDF
:101FF0001954704714ED00E000B500F00700C0F17F
:10200000070CBCF1040F28BF4FF0040C031D062B76
:102010000FD9C31E4FF0FF3E0EFA0CF021EA00016B
:1020200099400EFA03FE22EA0E0241EA02005DF830
:1020300004FB0023EEE70000074AD36823F4E063C3
:102040001B041B0C000200F4E060034343F0BF6379
:1020500043F40033D360704700ED00E010B5044650
:10206000054BD868C0F30220FFF7C6FF01462046A3
:10207000FFF7AEFF10BD00BF00ED00E008B5FFF7B1
:1020800099FF08BD10B40368D9B210390A4AA2FBFF
:1020900001421209094CA25CC2655F2907D96FF39E
:1020A000090304338365806D5DF8044B70476FF35B
:1020B00009038365F7E700BFABAAAAAAE8B0000846
:1020C000836A826992B9012B0AD0022B02D00BB12C
:1020D00000207047C36A13F0807F28D1002070472A
:1020E000C36AB3F1C07F24D000207047B2F5005F0F
:1020F00009D0022B25D9032B25D1C36A13F0807F89
:1021000023D100207047032B03D8DFE803F0140429
:10211000140A00207047C36A13F0807F0DD100209D
:102120007047C36AB3F1C07F09D000207047012017
:10213000704701207047012070470120704701203F
:102140007047012070470020704701207047000051
:1021500070B50446FFF748FB002C5BD00546022310
:1021600084F83530002384F834302268136823F073
:102170000103136023681A6812F0010F0AD0FFF7F9
:1021800033FB431B052BF5D920236365032084F81B
:10219000350070BD1A68204911406268A06802438A
:1021A000E06802432069024360690243A069024378
:1021B000E0690243206A02430A43616A04291ED08F
:1021C0001A602668756925F00705636A1D43042BAC
:1021D00007D1A36A1D43E36A1BB12046FFF770FFD6
:1021E00090B975612046FFF74DFFE26D3F239340A4
:1021F000836000206065012384F83530C9E7E16A17
:10220000206B01430A43DBE740236365012084F828
:102210003500BEE70120BCE73F8010F070B50446F2
:10222000866DFFF7E1FA94F83530DBB2022B06D069
:1022300080236365002384F83430012070BD054697
:102240002268136823F0160313602268536923F091
:1022500080035361236CE3B12268136823F0080301
:1022600013602268136823F00103136023681B685E
:1022700013F0010F11D0FFF7B7FA431B052BF5D967
:1022800020236365032084F83500002384F834306C
:10229000D4E7A36C002BDFD1E3E7E26D3F2393404B
:1022A000B360012384F83530002084F83400C5E79A
:1022B00090F83530DBB2022B03D080234365012038
:1022C0007047052380F835300268136823F0010356
:1022D0001360002070470000F0B583B0044600236F
:1022E0000193724B1D68724BA3FB0535AD0A876DD8
:1022F0003E68C26D08239340334210D003681A68C9
:1023000012F0040F0BD01A6822F004021A60C26D9A
:1023100008239340BB60436D43F001034365E26DC6
:1023200001239340334209D02268526912F0800F92
:1023300004D0BB60636D43F002036365E26D042368
:102340009340334209D02268126812F0020F04D081
:10235000BB60636D43F004036365E26D102393403B
:10236000334224D02268126812F0080F1FD0BB60DD
:1023700023681A6812F4802F0DD01B6813F4002F05
:1023800004D1236C9BB12046984710E0A36C73B135
:10239000204698470BE01A6812F4807F03D11A6830
:1023A00022F008021A60236C0BB120469847E26DB8
:1023B00020239340334255D02268126812F0100F48
:1023C00050D0BB6094F83530DBB2052B0ED02368BB
:1023D0001A6812F4802F33D01B6813F4002F2AD10F
:1023E000636C002B3ED0204698473BE02268136880
:1023F00023F0160313602268536923F080035361AE
:10240000236CA3B12268136823F008031360E26D04
:102410003F239340BB60012384F83530002384F8C8
:102420003430236D002B3FD0204698473CE0A36C0E
:10243000002BE7D1EBE7E36BA3B12046984711E00F
:102440001A6812F4807F09D11A6822F010021A600B
:10245000012384F83530002384F83430E36B0BB16A
:1024600020469847636DFBB1636D13F0010F17D0E1
:10247000052384F835302268136823F001031360C4
:10248000019B01330193AB4204D823681B6813F00E
:10249000010FF5D1012384F83530002384F834305E
:1024A000E36C0BB12046984703B0F0BD000000205C
:1024B000B5814E1B00230F2B00F2E98070B582B06E
:1024C00065E085684FEA430E032404FA0EF425EA1A
:1024D0000405CC6804FA0EF42C438460446824EAB2
:1024E00002044A68C2F300129A40224342605CE050
:1024F000DC08083450F8242003F00705AD004FF045
:102500000F0E0EFA05FE22EA0E0E0A69AA4042EAF2
:102510000E0240F824205CE0072200E0002202FACC
:102520000EF22A4302345A4D45F82420594A946841
:102530006FEA0C0224EA0C054E6816F4801F01D0E5
:102540004CEA0405534CA560E46802EA04054E68B1
:1025500016F4001F01D04CEA04054E4CE560646897
:1025600002EA04054E6816F4003F01D04CEA040567
:10257000484C6560246822404D6815F4803F01D0C6
:102580004CEA0402434C226001330F2B7DD8012218
:102590009A400C6804EA020C32EA0404F4D14C6854
:1025A00004F00304013C012C8BD94A6802F00302B9
:1025B000032A09D0C4685D000322AA4024EA020469
:1025C0008A68AA402243C2604A6802F00302022AD3
:1025D0008ED004684FEA430E032202FA0EF224EA78
:1025E00002044A6802F0030202FA0EF22243026079
:1025F0004A6812F4403FC7D000220192264A546C28
:1026000044F480445464526C02F480420192019A72
:102610009C08A51C1E4A52F8255003F0030E4FEAF1
:102620008E0E0F2202FA0EF225EA02051B4A904294
:102630003FF474AF02F5806290421AD002F58062D6
:10264000904218D002F58062904216D002F5806266
:10265000904214D002F58062904212D002F580625E
:10266000904210D002F5806290423FF455AF0822AC
:1026700055E7012253E7022251E703224FE70422E4
:102680004DE705224BE7062249E702B070BD7047CF
:1026900000380140003C0140003802400000024088
:1026A0000AB181617047090481617047436901EA99
:1026B000030221EA030141EA0241816170470000FF
:1026C000002800F0E08170B582B00446036813F082
:1026D000010F3BD09F4B9B6803F00C03042B2CD0C5
:1026E0009C4B9B6803F00C03082B21D06368B3F567
:1026F000803F4FD0B3F5A02F52D0964B1A6822F4EA
:1027000080321A601A6822F480221A606368002BF3
:1027100050D0FFF769F805468E4B1B6813F4003F55
:1027200014D1FFF761F8401B6428F5D90320B1E10B
:10273000884B5B6813F4800FD8D0864B1B6813F46A
:10274000003F03D06368002B00F09F81236813F0E3
:10275000020F54D07F4B9B6813F00C0F3ED07D4B83
:102760009B6803F00C03082B33D0E368002B68D080
:10277000794B01221A60FFF737F80546754B1B6845
:1027800013F0020F54D1FFF72FF8401B0228F5D9A0
:1027900003207FE16F4A136843F480331360B5E789
:1027A0006C4B1A6842F480221A601A6842F4803234
:1027B0001A60ABE7FFF718F80546664B1B6813F481
:1027C000003FC3D0FFF710F8401B6428F5D9032061
:1027D00060E1604B5B6813F4800FC6D15D4B1B68F2
:1027E00013F0020F03D0E368012B40F05081594AE7
:1027F000136823F0F803216943EAC10313602368D7
:1028000013F0080F42D063696BB3534B0122C3F836
:10281000802EFEF7E9FF05464E4B5B6F13F0020F6B
:1028200034D1FEF7E1FF401B0228F5D9032031E146
:10283000484A136823F0F803216943EAC10313608F
:10284000DDE7454B00221A60FEF7CEFF0546414BFF
:102850001B6813F0020FD2D0FEF7C6FF401B022800
:10286000F5D9032016E13C4B0022C3F8802EFEF779
:10287000BBFF0546374B5B6F13F0020F06D0FEF728
:10288000B3FF401B0228F5D9032003E1236813F0AE
:10289000040F77D02F4B1B6C13F0805F33D10023D4
:1028A00001932C4B1A6C42F080521A641B6C03F09B
:1028B00080530193019B0125284B1B6813F4807FF3
:1028C00023D0A368012B34D0052B38D0214B1A6FAD
:1028D00022F001021A671A6F22F004021A67A36835
:1028E000002B3DD0FEF780FF06461A4B1B6F13F0FE
:1028F000020F46D1FEF778FF801B41F288339842E1
:10290000F3D90320C6E00025D6E7144A136843F440
:1029100080731360FEF768FF0646104B1B6813F4C4
:10292000807FCED1FEF760FF801B0228F5D90320FF
:10293000B0E0084A136F43F001031367CFE7054B7C
:102940001A6F42F004021A671A6F42F001021A6706
:10295000C5E700BF00380240000047420070004059
:10296000FEF742FF0646524B1B6F13F0020F08D0D2
:10297000FEF73AFF801B41F288339842F3D90320D7
:1029800088E0EDB9A369002B00F08380484A926883
:1029900002F00C02082A51D0022B17D0454B00221E
:1029A0001A66FEF721FF0446414B1B6813F0007FB7
:1029B00042D0FEF719FF001B0228F5D9032069E079
:1029C0003B4A136C23F080531364DBE7394B00223E
:1029D0001A66FEF709FF0546354B1B6813F0007FAA
:1029E00006D0FEF701FF401B0228F5D9032051E075
:1029F000E369226A1343626A43EA8213A26A5208B5
:102A0000013A43EA0243E26A43EA0263284A536016
:102A1000284B01221A66FEF7E7FE0446244B1B688A
:102A200013F0007F06D1FEF7DFFE001B0228F5D968
:102A300003202FE000202DE000202BE0012B2BD0E5
:102A40001B4B5B6803F48001E269914226D103F0DD
:102A50003F02216A8A4223D1616A47F6C0721A4056
:102A6000B2EB811F1ED103F44031A26A5208013A31
:102A7000B1EB024F18D103F07063E26AB3EB026F5F
:102A800014D1002006E001207047012002E001205F
:102A900000E0002002B070BD0120FBE70120F9E753
:102AA0000120F7E70120F5E70120F3E70120F1E736
:102AB000003802400000474208B5264B9B6803F0EF
:102AC0000C03042B41D0082B41D1224B5A6802F051
:102AD0003F025B6813F4800F12D01E4B5968C1F39C
:102AE00088111D480023A1FB0001FDF725FD194BAE
:102AF0005B68C3F3014301335B00B0FBF3F008BD37
:102B0000144B5868C0F388104FEA401CBCEB000C13
:102B10006EEB0E0E4FEA8E1343EA9C634FEA8C1164
:102B2000B1EB0C0163EB0E03DB0043EA5173C90008
:102B300011EB000C43F10003990200234FEA8C20B3
:102B400041EA9C51FDF7F8FCD1E70348D7E7034879
:102B5000D5E700BF00380240001BB7000024F40096
:102B6000002800F09B8070B50D4604464F4B1B6853
:102B700003F007038B4208D2CBB24C4A13701368A0
:102B800003F007038B4240F08B80236813F0020FA1
:102B900017D013F0040F04D0454A936843F4E05370
:102BA0009360236813F0080F04D0414A936843F4FC
:102BB000604393603E4A936823F0F003A1680B439F
:102BC0009360236813F0010F32D06368012B21D08A
:102BD0009A1E012A25D9364A126812F0020F61D0D6
:102BE00033498A6822F0030213438B60FEF7FCFD31
:102BF00006462F4B9B6803F00C036268B3EB820F11
:102C000016D0FEF7F1FD801B41F288339842F0D9CF
:102C1000032042E0264A126812F4003FE0D101206E
:102C20003BE0234A126812F0007FD9D1012034E042
:102C30001E4B1B6803F00703AB4207D9EAB21B4BDC
:102C40001A701B6803F00703AB422DD1236813F001
:102C5000040F06D0164A936823F4E053E1680B434F
:102C60009360236813F0080F07D0114A936823F488
:102C70006043216943EAC1039360FFF71DFF0C4BDA
:102C80009B68C3F303130B4AD35CD8400A4B18600C
:102C90000A4B1868FEF730FB002070BD012070471A
:102CA0000120FAE70120F8E70120F6E7003C0240A6
:102CB00000380240D8B000080000002008000020C2
:102CC000014B1868704700BF0000002008B5FFF7EF
:102CD000F7FF044B9B68C3F38223034AD35CD840BD
:102CE00008BD00BF00380240D0B0000808B5FFF7AB
:102CF000E7FF044B9B68C3F34233034AD35CD840DD
:102D000008BD00BF00380240D0B000080F230360A8
:102D10000B4B9A6802F0030242609A6802F0F002DC
:102D200082609A6802F4E052C2609B68DB0803F498
:102D3000E0530361034B1B6803F007030B6070470C
:102D400000380240003C02407047000090F83D30DF
:102D5000DBB2012B37D1022380F83D300268D36803
:102D600043F00103D3600368194A934220D0B3F1C2
:102D7000804F1DD0A2F57C42934219D002F58062AB
:102D8000934215D002F58062934211D002F5784249
:102D900093420DD002F57052934209D0A2F59432BD
:102DA000934205D01A6842F001021A600020704771
:102DB0009A6802F00702062A07D01A6842F0010258
:102DC0001A6000207047012070470020704700BF44
:102DD00000000140704770477047704770B5044667
:102DE0000368DE681D6915F0020F10D016F0020F9F
:102DF0000DD06FF002021A610123037703689B690B
:102E000013F0030F5ED0FFF7E6FF0023237715F0E2
:102E1000040F12D016F0040F0FD023686FF00402D5
:102E20001A610223237723689B6913F4407F4FD0F4
:102E30002046FFF7D0FF0023237715F0080F12D0AC
:102E400016F0080F0FD023686FF008021A610423F0
:102E500023772368DB6913F0030F40D02046FFF788
:102E6000BAFF0023237715F0100F12D016F0100FC1
:102E70000FD023686FF010021A61082323772368AC
:102E8000DB6913F4407F31D02046FFF7A4FF002315
:102E9000237715F0010F02D016F0010F2DD115F098
:102EA000800F02D016F0800F2FD115F0400F02D006
:102EB00016F0400F31D115F0200F02D016F0200F80
:102EC00033D170BDFFF786FF2046FFF785FF9CE7F3
:102ED0002046FFF77FFF2046FFF77EFFABE7204647
:102EE000FFF778FF2046FFF777FFBAE72046FFF7A6
:102EF00071FF2046FFF770FFC9E723686FF00102FA
:102F00001A612046FEF75CF9C9E723686FF080027A
:102F10001A61204600F0ABF8C7E723686FF0400263
:102F20001A612046FFF759FFC5E723686FF02002BA
:102F30001A61204600F09AF8C3E700000368344A9B
:102F4000904212D0B0F1804F0FD0A2F57C42904257
:102F50000BD002F58062904207D002F58062904269
:102F600003D002F57842904203D123F070034A68FF
:102F70001343274A90422AD0B0F1804F27D0A2F5C0
:102F80007C42904223D002F5806290421FD002F52D
:102F9000806290421BD002F57842904217D002F531
:102FA0007052904213D002F5806290420FD002F529
:102FB000806290420BD0A2F59832904207D002F581
:102FC0008062904203D002F58062904203D123F4E4
:102FD0004073CA68134323F080034A6913430360B4
:102FE0008B68C3620B688362094B984203D003F578
:102FF0008063984201D10B69036301234361036934
:1030000013F0010F03D0036923F00103036170473C
:103010000000014040B310B5044690F83D30F3B1D4
:10302000022384F83D30214651F8040BFFF786FF58
:10303000012384F8463084F83E3084F83F3084F829
:10304000403084F8413084F8423084F8433084F8CA
:10305000443084F8453084F83D30002010BD80F8BD
:103060003C30FFF771FEDBE7012070477047704787
:10307000026802F10C0353E8003F23F490730C3212
:1030800042E800310029F3D1026802F1140353E849
:10309000003F23F00103143242E800310029F3D14C
:1030A000036B012B05D0202380F8423000230363FB
:1030B0007047026802F10C0353E8003F23F010034D
:1030C0000C3242E800310029F3D1ECE790F84130AE
:1030D000DBB2212B01D0022070478368B3F5805FFB
:1030E00017D0036A5A1C02621A7803685A60C38CAC
:1030F0009BB2013B9BB2C3844BB90268D36823F0F7
:103100008003D3600268D36843F04003D36000209B
:1031100070470369002BE4D1036A1B880268C3F37C
:1031200008035360036A02330362E0E710B5044604
:103130000268136923F44053C1680B431361836829
:1031400002691A4343691A43C3691A430168CB6889
:1031500023F4164323F00C031343CB600268536936
:1031600023F4407381690B4353610368314A9342EE
:1031700006D002F58062934202D0FFF7A7FD01E07E
:10318000FFF7B4FDE369B3F5004F29D00021031820
:1031900049411B1841F10001C90041EA5371DB00AC
:1031A000181863684FEA83024FEA937341F10001F4
:1031B000FDF7C2F9204AA2FB00314909642303FB51
:1031C00011031B013233A2FB03235B0903F0F0025E
:1031D00002EB011203F00F03216813448B6010BD52
:1031E0000023021843EB0301121841F10001C9004A
:1031F00041EA5271D200101841F100016268921840
:103200005B41FDF799F90C4AA2FB0031490964239F
:1032100003FB1103DB003233A2FB03235B095A00DB
:1032200002F4F87202EB011203F007032168134461
:103230008B60D4E7001001401F85EB512DE9F0436E
:1032400083B005460E4617469946DDF828802B6860
:103250001C6836EA04040CBF01240024BC4228D1B7
:10326000B8F1FF3FF3D0FEF7BFFAA0EB09004045ED
:1032700023D8B8F1000F22D02B68DA6812F0040FBF
:10328000E5D0802EE3D0402EE1D01A6812F0080F6E
:10329000DDD0002401941A6801925B680193019BC0
:1032A0002846FFF7E5FE08236B6485F840400120BF
:1032B00000E0002003B0BDE8F0830320FAE703201C
:1032C000F8E760B310B5044690F8413013B32423F7
:1032D00084F841302268D36823F40053D360204639
:1032E000FFF724FF2268136923F4904313612268D7
:1032F000536923F02A0353612268D36843F40053CF
:10330000D36000206064202384F8413084F8423088
:10331000606310BD80F84030FEF722F9D7E7012046
:1033200070472DE9F04182B01E4690F84130DBB283
:10333000202B56D104460D469046002955D00AB997
:1033400001204FE000234364212380F84130FEF741
:103350004BFA0746A4F82480A4F82680A368B3F5A6
:10336000805F02D04FF0000814E023692BB34FF0C8
:1033700000080FE0202384F84130032032E038F8C1
:10338000023B2268C3F308035360E28C92B2013A15
:1033900092B2E284E38C9BB293B100963B4600224A
:1033A00080212046FFF74AFF0028E3D1002DE6D018
:1033B00015F8012B23685A60E7E7A8460025E9E7DE
:1033C00000963B46002240212046FFF737FF18B900
:1033D000202384F8413005E0202384F84130032085
:1033E00000E0022002B0BDE8F0810120FAE770475A
:1033F00008B50168CA6822F04002CA60202280F83D
:103400004120FFF7F4FF002008BD7047704708B562
:10341000806B0023C385C384FFF7F8FF08BD7047A6
:1034200090F84230DBB2222B69D18368B3F5805F1C
:103430004FD0826AB3F5805F04D0002B56D1036968
:10344000002B53D103685B681370836A0133836276
:10345000C38D9BB2013B9BB2C385002B51D100B5FC
:1034600083B00268D36823F02003D3600268D36876
:1034700023F48073D3600268536923F0010353611E
:10348000202380F8423000234363036B012B33D1A8
:1034900000230363026802F10C0353E8003F23F0AA
:1034A00010030C3242E800310029F3D103681A6896
:1034B00012F0100F06D0002201921A6801925B6888
:1034C0000193019B818DFFF7AAFF002003B05DF8F7
:1034D00004FB0269002AACD1826A03685B68C3F30B
:1034E00008031380836A02338362B1E703685B6871
:1034F00003F07F031370A8E7FFF787FFE5E70220DB
:10350000704700207047000010B582B00446026882
:103510001368D068516913F00F0F09D113F0200F11
:103520000CD010F0200F09D02046FFF779FF16E0ED
:1035300011F0010115D110F4907F12D1216B0129F6
:1035400079D013F0800F03D010F0800F40F0148179
:1035500013F0400F03D010F0400F40F0118102B083
:1035600010BD13F0010F06D010F4807F03D0626C01
:1035700042F00102626413F0040F04D019B1626CCE
:1035800042F00202626413F0020F04D019B1626CBF
:1035900042F00402626413F0080F07D010F0200F0D
:1035A00000D119B1626C42F008026264626C002AB8
:1035B000D5D013F0200F02D010F0200F29D12368AE
:1035C0005B6903F04003626C12F0080F00D163B333
:1035D0002046FFF74DFD23685B6913F0400F20D0B4
:1035E000226802F1140353E8003F23F04003143231
:1035F00042E800310029F3D1E36B73B1624A1A65E6
:10360000E06BFEF755FE0028A9D0E06B036D9847EC
:10361000A5E72046FFF704FFD1E72046FFF7F6FEB7
:103620009DE72046FFF7F2FE99E72046FFF7EEFE02
:103630000023636493E713F0100F82D010F0100F93
:103640003FF47FAF00230193136801935368019304
:10365000019B536913F0400F52D0E26B13685B6813
:103660009BB2002B3FF47BAFA18D99427FF677AFE1
:10367000E385D369B3F5807F37D0226802F10C036C
:1036800053E8003F23F480730C3242E800310029F4
:10369000F3D1226802F1140353E8003F23F0010341
:1036A000143242E800310029F3D1226802F11403F8
:1036B00053E8003F23F04003143242E80031002970
:1036C000F3D1202384F8423000232363226802F1DF
:1036D0000C0353E8003F23F010030C3242E80031A2
:1036E0000029F3D1E06BFEF799FD02236363A18DFE
:1036F000E38D9BB2C91A89B22046FFF790FE2EE7F0
:10370000A18DE38D9BB2C91A89B2E38D9BB2002BC8
:103710003FF425AF00293FF422AF226802F10C03E9
:1037200053E8003F23F490730C3242E80030002845
:10373000F3D1226802F1140353E8003F23F00103A0
:10374000143242E800300028F3D1202384F84230BC
:1037500000232363226802F10C0353E8003F23F0A7
:1037600010030C3242E800300028F3D102236363D7
:103770002046FFF754FEF2E62046FFF7A7FCEEE6F0
:103780002046FFF735FEEAE60F340008842801D012
:10379000033070470020704708B500F067FD002037
:1037A00008BD2DE9F04387B00E464469C4B1856970
:1037B000B5B14768D0F80080D0F81090B0F9080093
:1037C000FFF7E4FF02950194009033464A464146D4
:1037D000384600F0DBFC0590059807B0BDE8F083A3
:1037E000446805680769B0F90800FFF7CFFF05AB2B
:1037F000019300903346BAB22946204600F003FDFB
:103800000128E9D00020E8E708B500B9012000F060
:103810007FFE002008BD00F1080343604FF0FF3237
:103820008260C3600361002303607047002303616B
:10383000704743684B609A688A605160996008617C
:10384000036801330360704730B40D68B5F1FF3F82
:1038500011D000F108031C465B681A68AA42FAD925
:1038600063684B6099608C60616008610368013334
:10387000036030BC70470469F2E7036941688268FD
:103880008A60416851605A68824206D00022026113
:103890001A68013A1A601868704782685A60F5E73A
:1038A00082B0002301930D4B1B68B3F1FF3F08D09A
:1038B0004FF0500383F31188BFF36F8FBFF34F8F27
:1038C000FEE74FF0500383F31188BFF36F8FBFF310
:1038D0004F8F019B002BFCD002B070470C000020E2
:1038E00008480068006880F308884FF0000080F303
:1038F000148862B661B6BFF34F8FBFF36F8F00DFDE
:1039000000BF000008ED00E0DFF80C00016841F4A2
:10391000700101607047000088ED00E04FF0807397
:1039200040F8043C21F0010140F8081C054B40F828
:103930000C3C40F8202C6FF0020340F8243C443843
:10394000704700BFA1380008000000000000000020
:10395000074B19680868B0E8F04F80F30988BFF397
:103960006F8F4FF0000080F311887047AFF3008035
:10397000704B00204FF0500383F31188BFF36F8F1B
:10398000BFF34F8F0B4A136801331360012B00D034
:1039900070474FF0E023D3F8043D13F0FF0FF7D04A
:1039A0004FF0500383F31188BFF36F8FBFF34F8F36
:1039B000FEE700BF0C000020094B1B6843B94FF025
:1039C000500383F31188BFF36F8FBFF34F8FFEE770
:1039D000013B034A13600BB983F31188704700BFA2
:1039E0000C000020000000000000000000000000AB
:1039F000EFF30980BFF36F8F154B1A681EF0100F9D
:103A000008BF20ED108A20E9F04F10602DE9090071
:103A10004FF0500080F31188BFF34F8FBFF36F8FCB
:103A200000F09CFD4FF0000080F3118809BC19687C
:103A30000868B0E8F04F1EF0100F08BFB0EC108A15
:103A400080F30988BFF36F8F704700BFAFF300802A
:103A5000704B002008B54FF0500383F31188BFF37B
:103A60006F8FBFF34F8F00F04BFC28B14FF0E02376
:103A70004FF08052C3F8042D002383F3118808BD52
:103A80004FF0E022002313619361054B1B68054949
:103A9000A1FB03139B09013B53610723136170478B
:103AA00000000020D34D62104FF0E023D3F8002D2A
:103AB0003D4B9A421CD04FF0E023D3F8002D3B4BF6
:103AC0009A421ED030B583B0394B1A78D2B20192E7
:103AD000FF221A701B78DBB28DF803309DF803309B
:103AE00003F05003334A1370334B07221A601BE074
:103AF0004FF0500383F31188BFF36F8FBFF34F8FE5
:103B0000FEE74FF0500383F31188BFF36F8FBFF3CD
:103B10004F8FFEE7284A1368013B13609DF803307E
:103B20005B00DBB28DF803309DF8033013F0800F9B
:103B3000F0D1214B1B68032B08D04FF0500383F3C7
:103B40001188BFF36F8FBFF34F8FFEE71B021A4A36
:103B5000136003F4E0631360019BDBB2144A13703B
:103B60004FF0E024D4F8203D43F47003C4F8203D26
:103B7000D4F8203D43F07043C4F8203DFFF780FFA8
:103B800000250E4B1D60FFF7BFFED4F8343F43F015
:103B90004043C4F8343FFFF7A3FE00F0DFFCFFF71B
:103BA0007FFE284603B030BD71C20F4170C20F4185
:103BB00000E400E0240E0020200E00200C00002075
:103BC000124A12F0070F1ED0D11D21F00701C1F5D6
:103BD000705313440A460E480260002141601344AA
:103BE000083B23F007030B48036059601960991ADA
:103BF00051601360084B1960084B1960084B4FF077
:103C000000421A6070474FF47053E4E7480E0020FA
:103C1000400E00203C0E0020340E0020380E002004
:103C2000280E0020164B1A461B688342FBD35168AE
:103C300002EB010C844509D0416800EB010C63459F
:103C400009D00360904219D0106070474068014469
:103C500051601046F0E710B40A4C2468A3420BD020
:103C60005B681944416013681B680360904200D090
:103C700010605DF8044B70470460F7E7704700BFC1
:103C8000400E00203C0E002038B5044600F030FB0A
:103C9000384B1B68B3B1384B1B681C4250D1002C09
:103CA00050D004F1080214F0070F02D022F00702EE
:103CB0000832002A55D0314B1B68934253D3304908
:103CC0000C6804E0FFF77CFFE5E721461C466368CB
:103CD000934202D22368002BF7D1264B1B68A342E4
:103CE00043D00D68083523680B6063689B1A102B5E
:103CF00010D9A01810F0070F08D04FF0500383F32D
:103D00001188BFF36F8FBFF34F8FFEE74360626090
:103D1000FFF788FF626819490B689B1A0B60194905
:103D200009688B4201D217490B60134B1B68134380
:103D3000636000232360144A13680133136002E0B8
:103D4000002500E0002500F067FB15F0070F0ED0FE
:103D50004FF0500383F31188BFF36F8FBFF34F8F82
:103D6000FEE70025EFE70025EDE70025EBE7284615
:103D700038BD00BF3C0E0020280E0020380E002069
:103D8000400E0020340E0020300E0020002834D0D9
:103D900038B50446A0F1080550F8043C174A1268EB
:103DA000134208D14FF0500383F31188BFF36F8F94
:103DB000BFF34F8FFEE750F8081C41B14FF050039E
:103DC00083F31188BFF36F8FBFF34F8FFEE723EAB2
:103DD000020340F8043C00F08BFA54F8041C084A33
:103DE00013680B4413602846FFF71CFF054A13684D
:103DF0000133136000F010FB38BD7047280E00201F
:103E0000380E00202C0E0020084B1B681B6823B9BD
:103E1000074B4FF0FF321A607047044B1B68DB689A
:103E2000DB685A68024B1A60704700BFB84A00202E
:103E3000504A00202DE9F04707469846089DDDF8D6
:103E400024900A9C266B02F18042013A06EB82061E
:103E500026F00706002964D008464FF0000CBCF19C
:103E60000F0F09D810F80C2004EB0C0383F8342052
:103E700012B10CF1010CF2E7002384F84330062D57
:103E800000D90625E56265644FF0000AC4F848A031
:103E9000201DFFF7CBFC04F11800FFF7C7FC2461DD
:103EA000C5F10705A5616462C4F890A184F894A1E6
:103EB0004FF4A072514604F1500001F00DF91B4B74
:103EC000636503F16802A265D033E3650122002334
:103ED000C4E93A2343F20E33A4F8F0304AF6CD3366
:103EE000A4F8F23041F23423A4F8F4304EF26D63BA
:103EF000A4F8F6304DF6EC63A4F8F8300523A4F8E6
:103F0000FA300B23A4F8FC30424639463046FFF71E
:103F100005FD2060B9F1000F01D0C9F80040BDE8EF
:103F2000F087002384F83430A9E700BF7C4C0020E0
:103F300038B5002407E004EB840293000E481844CF
:103F4000FFF769FC0134062CF5D90C4D2846FFF724
:103F500062FC0B4C2046FFF75EFC0A48FFF75BFC57
:103F60000948FFF758FC0948FFF755FC084B1D604E
:103F7000084B1C6038BD00BFE44A0020D04A002036
:103F8000BC4A0020A04A00208C4A0020744A00202D
:103F9000B84A0020B44A002010B50446FFF7EAFCF6
:103FA000214A136801331360204B1B685BB1204B1F
:103FB0001B686BB91D4B1B68DA6AE36A9A4207D823
:103FC0001A4B1C6004E0194B1C601368012B28D0AD
:103FD000184A136801331360E06A01238340164ACC
:103FE00011680B43136000EB8000211D134B03EBA2
:103FF0008000FFF71EFCFFF7DFFC0D4B1B687BB159
:104000000A4B1B68DA6AE36A9A4209D24FF0E0234E
:104010004FF08052C3F8042DBFF34F8FBFF36F8F63
:1040200010BDFFF785FFD3E7704A0020704B0020DA
:10403000644A0020544A0020684A0020E44A0020D4
:1040400010B50446503001F0ABF894F8953163B1E7
:10405000012B11D0022B0ED04FF0500383F31188A7
:10406000BFF36F8FBFF34F8FFEE7206BFFF78EFE1E
:104070002046FFF78BFE10BD2046FFF787FEFAE7CC
:104080000F4B1B68D3B110B5FFF774FC0D4BDB6809
:10409000DC68201DFFF7F1FB0B4A1368013B13603E
:1040A000074A1368013B1360FFF786FC2046FFF7C1
:1040B000C7FF034B1B68002BE6D110BD704700BF44
:1040C000884A00208C4A0020704A002008B5FFF77B
:1040D000D7FF074B1B68012BF9D94FF0E0234FF0B6
:1040E0008052C3F8042DBFF34F8FBFF36F8FEEE7FD
:1040F000E44A002070B504460D461D4B1E681D4B5A
:1041000018680430FFF7B9FB48B91A4B1B68DB6A23
:1041100001229A4018490B6823EA02030B60B4F1AC
:10412000FF3F0DD03444134B1B685C60A64210D98E
:10413000124B18680F4B19680431FFF785FB70BDEF
:10414000002DEFD00B4B196804310D48FFF771FBC0
:10415000F5E70C4B1868074B19680431FFF774FB3F
:10416000094B1B68A342EAD9074B1C60E7E700BF75
:104170006C4A0020704B0020684A0020B44A00209E
:10418000744A0020B84A0020504A002030B587B059
:104190000B9C8CB10C9DC5B14FF4CC750495049D5E
:1041A000B5F5CC7F1AD04FF0500383F31188BFF3DD
:1041B0006F8FBFF34F8FFEE74FF0500383F31188EB
:1041C000BFF36F8FBFF34F8FFEE74FF0500383F3C2
:1041D0001188BFF36F8FBFF34F8FFEE7049D0C9DD7
:1041E0002C63022485F8954100240394029505ACC4
:1041F00001940A9C0094FFF71DFE0C98FFF7CCFE7B
:10420000059807B030BD2DE9F04385B007468846D4
:1042100014461E469000FFF737FD10B381464FF459
:10422000CC70FFF731FD0546A8B1C0F830900023EF
:1042300080F89531039302900D9B01930C9B0093A2
:104240003346224641463846FFF7F4FD2846FFF73D
:10425000A3FE012007E04846FFF798FD4FF0FF302E
:1042600001E04FF0FF3005B0BDE8F08310B588B035
:1042700000240594069407AA06A905A8FCF7EAFEFF
:10428000059B0293069B019300942346079A1049CD
:104290001048FFF77BFF104B1860B8B14FF0500388
:1042A00083F31188BFF36F8FBFF34F8F0B4B1B68E6
:1042B00050330B4A13600B4B4FF0FF321A600A4B1E
:1042C00001221A60094B1C60FFF7EEFB08B010BD1D
:1042D0000CAF0008CD4000084C4A0020704B002075
:1042E0003C010020504A0020644A00206C4A002013
:1042F000024A136801331360704700BF484A002028
:10430000F8B53A4B1B68002B69D1394B1D68013554
:104310001D60C5B9374B1B681B6843B14FF0500394
:1043200083F31188BFF36F8FBFF34F8FFEE7314ADE
:104330001168314B186810601960304A13680133F6
:104340001360FFF761FD2E4B1B68AB423DD9002780
:104350002C4B1B68DB6A03EB83039A002A4B9B58A8
:10436000012B00D90127294B1B68002B3CD00127CA
:104370003AE001271F4B1B681B6843B31D4B1B68AA
:10438000DB68DC6863689D4226D3261D3046FFF754
:1043900074FAA36A1BB104F11800FFF76EFAE36A1E
:1043A00001229A401A49086802430A6003EB83031A
:1043B0009A00314614481044FFF73BFAE26A114B69
:1043C0001B68DB6A9A42D4D2D4E70027D2E70C4BB1
:1043D0004FF0FF321A60BBE7094A1360B8E70D4A95
:1043E00013680133136000273846F8BD484A00209F
:1043F0006C4A0020B84A0020B44A0020584A0020E5
:10440000504A0020704B0020E44A00205C4A002003
:10441000684A0020604A002038B5354B1B6843B914
:104420004FF0500383F31188BFF36F8FBFF34F8FAB
:10443000FEE7FFF79FFA2E4B1A68013A1A601B68D5
:10444000002B4FD12B4B1B680BB900244BE00024F1
:10445000294B1B681BB3284BDB68DC6804F1180090
:10446000FFF70BFA251D2846FFF707FAE06A01233C
:104470008340224A11680B43136000EB80002946F9
:104480001F4B03EB8000FFF7D4F9E26A1D4B1B685A
:10449000DB6A9A42DCD31C4B01221A60D8E70CB1CC
:1044A000FFF7B2FC194B1C6884B9174B1C68D4B1D8
:1044B0004FF0E0234FF08052C3F8042DBFF34F8F2D
:1044C000BFF36F8F01240EE0013C07D0FFF718FF08
:1044D0000028F9D00C4B01221A60F5E70B4B0022A3
:1044E0001A60E2E70024FFF767FA204638BD00BFF4
:1044F000484A0020704A0020A04A0020684A002054
:10450000E44A0020704B00205C4A0020604A0020F2
:1045100010B5A8B10446104B1B6843B14FF05003CF
:1045200083F31188BFF36F8FBFF34F8FFEE7FFF761
:10453000DFFE00212046FFF7DDFDFFF76DFF48B9E4
:104540004FF0E0234FF08052C3F8042DBFF34F8F9C
:10455000BFF36F8F10BD00BF484A0020224B1B687D
:104560001BB1224B01221A607047204B00221A60B7
:104570001F4B1B68B3FA83F3DBB2C3F11F0303EBDA
:1045800083018A001B498A5842B94FF0500383F3D4
:104590001188BFF36F8FBFF34F8FFEE7154803EB12
:1045A00083018A00024451684968516003EB830C1F
:1045B0004FEA8C020832024491420DD003EB830390
:1045C0009A000C4B13445B68DA680B4B1A601B684B
:1045D00050330A4A13607047486862469100054AA2
:1045E0000A445060EAE700BF484A00205C4A0020C5
:1045F000684A0020E44A0020704B00203C01002063
:1046000000B583B00A4BD3F8BC609868FBF73CFF59
:1046100004460D463046FBF737FFCDE90001224640
:104620002B46044800F086FA0120FFF7EDF8E9E791
:104630001000002014AF000808B50E4C4FF4806144
:104640002046FEF733F84620FFF7DEF84FF400610E
:104650002046FEF72BF84620FFF7D6F84FF480519E
:104660002046FEF723F84620FFF7CEF80120FFF79B
:10467000CBF8E2E7001C024000B587B040F6B83046
:10468000FFF7C2F8384CEC4604F10C0EBEE80F0000
:10469000ACE80F009EE803008CE8030094E80E00ED
:1046A000012000F071F9EC4604F1C00EBEE80F00E5
:1046B000ACE80F009EE803008CE8030004F1B405A9
:1046C00095E80E00012000F05FF96420FFF79CF8E8
:1046D00000232362C4F8D430EC4604F1100EBEE887
:1046E0000F00ACE80F00DEF80030CCF8003094E8A2
:1046F0000F0000F0C9F8EC46C4340FCCACE80F0052
:104700002368CCF8003095E80F0000F0BDF8164C97
:10471000164B2362164BC4F8D430EC4604F1100E4D
:10472000BEE80F00ACE80F00DEF80030CCF8003037
:1047300094E80F0000F0A8F8EC4604F1C40EBEE8BF
:104740000F00ACE80F00DEF80030CCF80030B434D5
:1047500094E80F0000F098F80A20FFF755F80120C0
:10476000FFF752F8D3E700BF100000203333333F88
:10477000CDCC4C3E31EE601A30EE600A012383400E
:10478000013B07EE903AF8EEE77A20EE270AC0EEFA
:10479000017AFCEEE77A17EE903A98B2704707EE8E
:1047A000900A70EEC00AF8EEE77A27EEA07A0123AD
:1047B0008B40013B07EE903AF8EEE77AC7EE276AA6
:1047C00036EE800A70470000F0B589B007460D4606
:1047D00014461E46012A03D0022C11D009B0F0BDA8
:1047E0000028F9D00029F7D0029300230493059301
:1047F000069101AB024602A90948FDF76BF9EBE708
:10480000002FEBD0002DE9D00296002304930593EE
:10481000069501AB3A4602A90248FDF75BF9DDE7D0
:10482000500800202808002010B58AB00023059306
:10483000069301220792009301930293039304933A
:10484000089209930E4C69462046FDF779F82046F8
:10485000FDF712F902212046FDF766FA0E230993AF
:104860000593084C69462046FDF76AF82046FDF797
:1048700003F902212046FDF757FA0AB010BD00BF28
:10488000500800202808002084B0F0B52DED028BE0
:1048900083B00AAC84E80F00DDED128AFBEE027AE9
:1048A000F4EEE78AF1EE10FA09D9F3EE027AF4EEAB
:1048B000E78AF1EE10FA04DBF0EE678A01E0FBEE26
:1048C000028A9FED2D8A1020B2EE091AFAEE090A2B
:1048D000B0EE480AFFF74EFF07460C209FED271A5F
:1048E000DFED270AB0EE480AFFF744FF06460C202A
:1048F0009FED241AF0EE480AB0EE480AFFF73AFF9F
:1049000005460C20B1EE041AF0EE480AB0EE480A53
:10491000FFF730FF04460C20B3EE021AFBEE020A4A
:10492000B0EE680AFFF726FF3A0A8DF800208DF8EE
:10493000017032098DF802202A0A42EA06128DF827
:1049400003208DF8045022098DF80520020A42EA5E
:1049500004128DF806208DF807009DF828309DF888
:10496000292008216846FFF72FFF03B0BDEC028B1A
:10497000BDE8F04004B07047000000000000344281
:10498000000034C20000FA4384B000B583B084460E
:1049900005A880E80E00134B93E8030002AB03E97F
:1049A0000300BCF1020F15D0BCF1030F16D0BCF10F
:1049B000010F0AD1FC238DF807309DF814309DF8C3
:1049C000152008216846FFF7FFFE03B05DF804EBF1
:1049D00004B07047FD238DF80730EEE7FE238DF815
:1049E0000730EAE720AF00082DE9F0438BB04C4BCD
:1049F000984205D04B4B984247D00BB0BDE8F083AE
:104A000001AB03AA0021FDF7DAF89DF80440631E0C
:104A1000032BF2D89DF805009DF806209DF807109D
:104A20009DF808301F0947EA01171B0203F4706361
:104A30009DF8091043EA0105013CDFF8F48004EB1E
:104A4000C40608EB8606B36873601021F2EE090A0B
:104A5000BAEE090A42EA0020FFF7A1FE86ED020A3B
:104A60000C21DFED310A9FED310A3846FFF797FE42
:104A700086ED030A0C21F3EE020ABBEE020A284679
:104A8000FFF78DFE86ED050AB7E701AB03AA00210B
:104A9000FDF795F89DF80440631E032BADD89DF8F3
:104AA00005009DF806209DF807109DF808301D09A7
:104AB00045EA01151B0203F470639DF8091043EAEF
:104AC0000106631E03341A4F03EBC30307EB830392
:104AD0009B6804EBC40807EB8808C8F80430102171
:104AE000F2EE090ABAEE090A42EA0020FFF757FE81
:104AF00088ED020A0C21DFED0C0A9FED0C0A284616
:104B0000FFF74DFE88ED030A0C21F3EE020ABBEE1F
:104B1000020A3046FFF743FE88ED050A6DE700BF45
:104B2000500800202808002000003442000034C251
:104B3000100000200FB410B502AA52F8041B094B54
:104B40001A60094C204600F0ABFA82B2074B1A807B
:104B5000642321460648FEF7E4FBBDE8104004B09C
:104B6000704700BF784C0020784B0020744B002029
:104B70008C0D00202DE9F047089D0E4604460F4697
:104B8000002B4AD194468C45B2FA82F260D942B1E8
:104B9000C2F12003974020FA03F30CFA02FC1F43F2
:104BA00094404FEA1C4E1FFA8CF6B7FBFEF1230C23
:104BB0000EFB117743EA074301FB06F098420AD93E
:104BC0001CEB030301F1FF3780F01581984240F29E
:104BD0001281023963441B1AA4B2B3FBFEF00EFB30
:104BE000103344EA034400FB06F6A6420AD91CEB44
:104BF000040400F1FF3380F00081A64240F2FD8002
:104C00006444023840EA0140A41B00211DB1D44095
:104C10000023C5E90043BDE8F0878B4205D90DB1FB
:104C2000C5E9000100210846F5E7B3FA83F1002940
:104C300046D1B34202D3824200F2F580841A66EB79
:104C4000030201201746002DE5D0C5E90047E2E741
:104C5000002A40F09380A1EB0C034FEA1C471FFA97
:104C60008CFE0121B3FBF7F607FB1630230C43EA59
:104C700000430EFB06F0984208D91CEB030306F133
:104C8000FF3802D2984200F2D08046461B1AA4B2E6
:104C9000B3FBF7F007FB103344EA03440EFB00FEBE
:104CA000A64508D91CEB040400F1FF3302D2A64547
:104CB00000F2B6801846A4EB0E0440EA0640A5E7D1
:104CC000C1F120078B4022FA07FC4CEA030C06FADC
:104CD00001FE20FA07F426FA07F344EA0E0400FA6C
:104CE00001F84FEA1C404FEA1449B3FBF0FE1FFAEB
:104CF0008CF600FB1E3349EA03430EFB06F9994587
:104D000002FA01F20BD91CEB03030EF1FF3A80F01B
:104D10008580994540F28280AEF1020E6344A3EB98
:104D20000909A4B2B9FBF0F300FB139944EA094462
:104D300003FB06F6A64208D91CEB040403F1FF307E
:104D400068D2A64266D9023B644443EA0E40A41BE3
:104D5000A0FB02E6B4427346B14652D34FD05DB1D8
:104D6000B8EB030264EB090404FA07F722FA01F333
:104D70001F43CC40C5E9007400214CE7C2F120017B
:104D800020FA01F30CFA02FC26FA01F196403343B3
:104D90004FEA1C471FFA8CFEB1FBF7F007FB101619
:104DA000190C41EA064100FB0EF68E4204FA02F4A9
:104DB00008D91CEB010100F1FF382DD28E422BD90E
:104DC00002386144891B9BB2B1FBF7F607FB161151
:104DD00043EA014306FB0EF1994208D91CEB030399
:104DE00006F1FF3814D2994212D9023E63445B1A8D
:104DF00046EA004136E73946EDE6184602E7F04557
:104E0000ADD2BEEB020366EB0C060138B146A6E755
:104E10004646ECE7034698E74046D3E7D6467EE7AA
:104E20006444023847E708460DE7023E63442DE735
:104E3000024A0349034800F0C9B800BF300100200E
:104E4000DD760008400100200C4B4168994210B506
:104E5000044601D002F042FCA168094B994202D0FD
:104E6000204602F03BFCE168064B994204D0204604
:104E7000BDE8104002F032BC10BD00BF7C4C0020E9
:104E8000E44C00204C4D00202DE9F843314A324CCF
:104E90003249DFF8DC90DFF8DC80314F116000250B
:104EA00004232946082204F15C00C4E903352D4E91
:104EB000A560C4E90055C4E90555656600F00CF924
:104EC00004F15800C4E90749C4E90987E66200F023
:104ED0000DFA2946244B6367082204F1C400C4E993
:104EE0001A55C4E91E552567C4F8CC50C4F8805043
:104EF00000F0F2F804F1680304F1C000C4F8843053
:104F0000C4E92298C4E9247600F0F0F9174BC4F8FC
:104F1000DC30294604F596700822C4E93455C4E90A
:104F20003855C4F8D850C4F83451C4F8E85000F0EB
:104F3000D3F804F1D003C4E93D87C4F8F09004F538
:104F40009470C4F8FC60C4F8EC30BDE8F84300F09D
:104F5000CDB900BFB44D00207C4C0020314E00087C
:104F60007550000899500008090001001200020065
:104F7000115000083550000810B504460A4800F0EA
:104F8000B9F9636B23B9094B094A1B68626323B102
:104F9000BDE81040044800F0AFB9FFF775FFBDE869
:104FA0001040014800F0A8B9C44D0020B44D0020C5
:104FB000494E0008014800F09DB900BFC44D0020D3
:104FC000014800F099B900BFC44D00202DE9F84315
:104FD0000746884616464FF00009D6E90154013DC0
:104FE00010D4A389012B08D9B4F90E30013321461E
:104FF000384602D0C04749EA0009013D6B1C04F164
:105000006804EED13668002EE7D14846BDE8F88343
:1050100010B50C46B1F90E1000F00EF9002803DBB4
:10502000236D0344236510BDA38923F48053A3811A
:1050300010BD00BF2DE9F0410C46B1F90C101F4620
:10504000CB05054616460BD421F48051A1813B4681
:10505000B4F90E1032462846BDE8F04100F002B91E
:10506000B4F90E100223002200F0D0F8B4F90C10AD
:10507000EAE700BF10B50C46B1F90E1000F0C6F813
:10508000B4F90C30421C0EBF23F4805343F4805318
:105090002065A38110BD00BFB1F90E1000F06EB8FD
:1050A00070B59AB013460A4E0A466FF0004102915D
:1050B0000591084903910446002530681995694611
:1050C0000094049400F040FD009B1D701AB070BD68
:1050D0003C0100200802FFFF830730B547D0541E73
:1050E000002A3ED0CAB2034601E0013C39D303F89E
:1050F000012B9D07F9D1032C2CD9CDB205EB052549
:105100000F2C05EB054535D9A4F1100222F00F0C48
:1051100003F1100EE6444FEA121C1A46C2E900558C
:10512000C2E9025510327245F8D10CF1010214F0B7
:105130000C0F03EB021204F00F0C13D0ACF10403BC
:1051400023F003030433134442F8045B9342FBD17E
:105150000CF003042CB1C9B21C4403F8011BA34298
:10516000FBD130BD64461346002CF4D1F9E7034669
:105170001446C0E71A46A446E0E700BF38B5074D1D
:105180000022044608462A60FCF77CF9431C00D044
:1051900038BD2B68002BFBD0236038BDB84D0020F4
:1051A000194B1B6883422ED0416C70B5054681B106
:1051B00000268C593CB121462468284600F00AF9A3
:1051C000002CF8D1696C0436802EF2D1284600F00C
:1051D00001F9A96B11B1284600F0FCF82C6C34B130
:1051E00021462468284600F0F5F8002CF8D1E96C37
:1051F00011B1284600F0EEF86B6B1BB12846BDE8F4
:105200007040184770BD70473C01002038B50C460F
:10521000084D8446114620461A4600232B606446FA
:10522000FCF73AF9431C00D038BD2B68002BFBD0AB
:10523000236038BDB84D002038B50C46084D844673
:10524000114620461A4600232B606446FCF7FCF802
:10525000431C00D038BD2B68002BFBD0236038BD29
:10526000B84D002038B50C46084D844611462046FE
:105270001A4600232B606446FCF7F6F8431C00D066
:1052800038BD2B68002BFBD0236038BDB84D002003
:10529000014B1868704700BF3C01002070B50F4BF0
:1052A0000F4DAB42A3EB050607D0B610002455F80E
:1052B000043B01349847A642F9D805F0D1FD094DC9
:1052C000094B5E1BAB424FEAA60606D0002455F8F8
:1052D000043B01349847A642F9D870BD3CB300089E
:1052E0003CB300083CB3000844B30008704700BF5B
:1052F000704700BF704700BF704700BF024B13B13B
:10530000024800F005B8704700000000C9790008A5
:10531000002301461A46184602F0AABB2DE9F843BD
:1053200006460820894602F063FBDFF8A4800546A4
:10533000304600F0FDFBD8F808305F6827F003071F
:10534000A7F11104A4EB09042C44B4FBF5F4013CCF
:1053500005FB04F4A54208DC0021304602F022FBE4
:10536000D8F808303B44984205D0304600F0E6FBC0
:105370000020BDE8F8836142304602F013FB0130A3
:105380000FD0114AD8F808303F1B47F001075F6083
:10539000136830461B1B136000F0D0FB0120BDE8F2
:1053A000F8830021304602F0FDFAD8F80820831A6D
:1053B0000F2BDADD43F001035360044B02491B68F5
:1053C000C01A0860D1E700BFCC4D00208402002045
:1053D0009002002000297CD02DE9F0410C46804647
:1053E00000F0A6FB54F8043C754FA4F1080523F027
:1053F00001016818BE684268864222F0030200F08C
:105400008380DE07426000EB020C33D454F8084C72
:10541000DCF804302D1B2144AC6807F1080C64450E
:1054200003F0010364D0D5F80CE0C4F80CE0CEF82A
:105430000840002B00F0818041F001036B600160A7
:10544000B1F5007F22D27868CB08012249090133E7
:105450008A40024357F833107A6007EBC302083AD8
:10546000C5E9021247F83350CD604046BDE8F0412F
:1054700000F064BBDCF80430DB072BD541F00103FE
:10548000B1F5007F44F8043C0160DCD3B1F5206F36
:105490004FEA512353D28B0903F1390003F138024B
:1054A000C300F818FB580838984203D161E09B68A4
:1054B000984204D05A6822F003028A42F7D8D8688A
:1054C000C5E902308560DD604046BDE8F04100F08E
:1054D00035BB7047114407F1080C836863453FD022
:1054E000C268DA60936041F001036B606950A7E71E
:1054F000002B5FD10A44D0E90213CB60996042F0DF
:1055000001036B60AA50B0E7DB070A4407D454F8E4
:10551000083CED1A1A44D5E90213CB60996042F0B9
:1055200001036B60274BBD601B6893429DD8264BDF
:1055300040461968FFF7F2FE97E71144CDE7142BB8
:1055400008D9542B1DD80B0B03F16F0003F16E0229
:10555000C300A6E703F15C0003F15B02C300A0E710
:1055600041F00103C7E90455C5E902CC6B606950FD
:105570007BE779689210012404FA02F20A437A6008
:105580009EE7B3F5AA7F06D8CB0B03F1780003F1B1
:105590007702C30085E740F25452934206D88B0C41
:1055A00003F17D0003F17C02C3007AE74FF47E73C0
:1055B0007E2276E741F001036B60016055E700BF92
:1055C0009002002088020020FC4D00202DE9F04FC1
:1055D00001F10B05162D83B0064623D8102900F2E1
:1055E000AF8000F0A5FA102518230220B74F3B44E6
:1055F000A3F108025C68944200F01E816368E268CF
:10560000A16823F00303CA602344304691605A68BE
:1056100042F001025A6000F091FA0834204603B0CB
:10562000BDE8F08F35F0070500F18A80A94200F24D
:10563000878000F07DFAB5F5FC7FC0F06E816B0AC3
:1056400000F08280042B00F21D81AB0903F13900C8
:1056500003F1380EC3009D4F3B44A3F1080C5C6876
:10566000A44507D10DE0002AE16880F2DF808C4577
:1056700007D00C46636823F003035A1B0F2AF2DDA0
:105680007046DFF860823C69444500F0BC80636886
:1056900023F0030CACEB05030F2B00F34281002B2E
:1056A000C7E9048880F22D81BCF5007FD7F804E0BB
:1056B00080F0C8804FEADC0101314FEA5C1C012315
:1056C00003FA0CF357F83120A2604EEA030E07EB01
:1056D000C103083BE360C7F804E047F83140D460F9
:1056E00083104FF0010C0CFA03FCF44532D81CEA8D
:1056F0000E0F08D120F003004FEA4C0C1CEA0E0FED
:1057000000F10400F8D007EBC00AD6468146DEF867
:105710000C300BE0596821F003014A1B0F2A1C468C
:10572000DB6800F3BB80002A80F2DE809E45F1D169
:1057300009F1010919F0030F0EF1080EE7D119E183
:105740000C233360002469E74FF4007340204FF0CE
:105750003F0E80E7BC68636823F00309A94503D3C3
:10576000A9EB05030F2B51DC594B1B68082003F1F3
:10577000100804EB0903009302F03AF9554A136844
:105780000133A844834605D008F1FF3880444342E2
:1057900003EA08084146304602F004F9B0F1FF3F41
:1057A0004C4A824600F0D880009B834200F2D280AF
:1057B000494B186840440BF1FF311860844640F0B3
:1057C000FC801AEA010F40F0F880D7F808A0C8441E
:1057D00048F00102CAF80420404B1968814238BFE2
:1057E00018603F4B1968814238BF1860544622F058
:1057F0000308A845A8EB050301D30F2B06DC3046B0
:1058000000F09CF99EE7D7F804E069E7621943F0DD
:10581000010345F0010565603046BA60536000F051
:105820008DF90834204603B0BDE8F08FA268234408
:10583000D16030468A60EAE6DC68A3427FF4DEAEDF
:1058400002301EE7BCF5206F4FEA5C227BD3142A9E
:1058500000F2128102F15C03DB005B32F918FB58A5
:105860000839994203D1ECE09B68994204D05A6808
:1058700022F003026245F7D8D968C4E902318C608E
:10588000DC602DE7142B6AD9542B00F2FE802B0B21
:1058900003F16F0003F16E0EC300DCE6D4F808C01C
:1058A0003046661945F001056560CCF80C30C3F848
:1058B00008C042F00103C7E90466C6E902887360C4
:1058C000625000F03BF90834A8E600BF90020020C7
:1058D000FC4D002084020020CC4D0020F84D00201B
:1058E000F44D002098020020214430464A6842F0DE
:1058F00001024A6054F8082FD3609A6000F01EF944
:105900008CE6A4443046DCF8043043F00103CCF8C4
:10591000043000F013F9083480E6E80805F10803C4
:1059200064E6621943F0010145F001056560304607
:10593000C7E90422C2E90288516044F80C3000F043
:10594000FDF808346AE64FEA9C1202F13903DB00E5
:10595000383283E7BC4228D0BC68626847E703F16D
:105960005C0003F15B0EC30075E65AF80839534535
:1059700040F0D98010F0030F00F1FF30F5D17B68C3
:1059800023EA0C037B604FEA4C0C9C453FF6E2AEE9
:10599000BCF1000F04D1DDE64FEA4C0C09F104091B
:1059A0001CEA030FF8D04846ADE6604B186808EBD8
:1059B000000C0BF1FF31C3F800C0106801306ED04D
:1059C000009AAAEB020262441A601AF00702CDE9BB
:1059D000002340D0C2F108029244D04408EA0100FA
:1059E0005A44121A02EA010B5946304601F0DAFF16
:1059F000421C019B6FD0A0EB0A0000EB0B0818685B
:105A0000C7F808A048F001025844BC42CAF8042074
:105A100018603FF4E1AEB9F10F0F43D96168A9F105
:105A20000C0222F0070201F00101114361604FF006
:105A3000050CA1180F2AC1E901CC54D8DAF80420CA
:105A4000CAE692104FF0010C0CFA02F24EEA020E76
:105A5000C7F804E011E70AEB08020A40ABEB0202C8
:105A600002EA010B5946304601F09CFF431C019BA2
:105A7000C1D1DDF800B0C2E7542A17D84FEA1C3272
:105A800002F16F03DB006E32E8E6B3F5AA7F17D8A8
:105A9000EB0B03F1780003F1770EC300DBE5C2F8EE
:105AA00000A092E70123CAF80430A8E6B2F5AA7F65
:105AB00024D84FEADC3202F17803DB007732CDE6FE
:105AC00040F25452934224D8AB0C03F17D0003F111
:105AD0007C0EC300BFE5009A083A9044A8EB0A0880
:105AE0004FF0000B8BE7304604F108010093FFF7FD
:105AF00071FC009BD7F808A018689FE740F2545348
:105B00009A420CD84FEA9C4202F17D03DB007C32C2
